:060000000A128A11122809
:10000800FE00030E83120313A2000408A3000A08CB
:10001800A4007F08A5000A128A1115280A128A115D
:10002800AA2C1930F5008030F6000A128A115A23DA
:100038000A128A111F28831203138C1E24282528CC
:100048001F281819282829282D28981C2C282D28DD
:10005800342818121A08A0002008FB0018163428A3
:100068000A128A119A240A128A110E30F500803079
:10007800F6000A128A115A230A128A1183120313EC
:100088001A08A0002008FB000130F5008030F600B7
:100098000A128A115A230A128A11831203131A08A0
:1000A800A0000030A1002008F5002108F6000A127F
:1000B8008A115A230A128A11831203138C12062BEF
:1000C8000A128A119A240A128A110030F5000030A7
:1000D800F6000A128A11B7240A128A117B080A123A
:1000E8008A114B240A128A110130F9000030FA00F3
:1000F80003307A02E93003197902031C8428852821
:100108008728172B172B7C088312031385000030D0
:10011800B0000030AF000030AE000130AD00300854
:10012800803AFF000030803A7F02031DA528003086
:100138002F02031DA52803302E02031DA528E93030
:100148002D02031CA828A928AB28D028D0280130C4
:10015800AD07003003180130AE0700300318013036
:10016800AF07003003180130B0073008803AFF00AD
:100178000030803A7F02031DCB2800302F02031D78
:10018800CB2803302E02031DCB28E9302D02031C97
:10019800CE28CF28AB28D0287D08A1007C08A00055
:1001A80001300310A10CA00CFF3E031DD528200828
:1001B800FC002108FD007D087C04031DE428E528D7
:1001C800E9280830FC000030FD000130F907031869
:1001D800FA0A0030FA0703307A02E9300319790283
:1001E800031CF728F8288728172B172B0A128A11BF
:1001F8009A240A128A110030F5000030F6000A121B
:100208008A11B7240A128A117B080A128A114B2410
:100218000A128A110130F9000030FA0003307A021C
:10022800E93003197902031C1A291B291D29172BE8
:10023800172B7C088312031385000030B0000030B0
:10024800AF000030AE000130AD003008803AFF004A
:100258000030803A7F02031D3B2900302F02031D26
:100268003B2903302E02031D3B29E9302D02031CD4
:100278003E293F294129662966290130AD0700300A
:1002880003180130AE07003003180130AF07003003
:1002980003180130B0073008803AFF000030803A78
:1002A8007F02031D612900302F02031D61290330DD
:1002B8002E02031D6129E9302D02031C64296529DA
:1002C800412966297D08A1007C08A0000130FF00B3
:1002D8000310A00DA10DFF0B6C292008FC002108BC
:1002E800FD0000307D02093003197C02031C7D29C2
:1002F8007E2982290130FC000030FD000130F90719
:100308000318FA0A0030FA0703307A02E9300319B1
:100318007902031C902991291D29172B172B0A12E2
:100328008A119A240A128A110030F5000030F6006A
:100338000A128A11B7240A128A117B080A128A1132
:100348004B240A128A110130F9000030FA000530F6
:100358007A02DD3003197902031CB329B429B629BE
:10036800172B172B7C088312031385000030B0006D
:100378000030AF000030AE000130AD003008803AE8
:10038800FF000030803A7F02031DD42900302F027D
:10039800031DD42903302E02031DD42921302D0238
:1003A800031CD729D829DA29FF29FF290130AD07ED
:1003B800003003180130AE07003003180130AF07D2
:1003C800003003180130B0073008803AFF000030D1
:1003D800803A7F02031DFA2900302F02031DFA29F3
:1003E80003302E02031DFA2921302D02031CFD299A
:1003F800FE29DA29FF297D08A1007C08A000013028
:100408000310A10CA00CFF3E031D042A2008FC00C9
:100418002108FD007D087C04031D132A142A182ACC
:100428000830FC000030FD000130F9070318FA0A13
:100438000030FA0705307A02DD3003197902031C0F
:10044800262A272AB629172B172B0A128A119A242B
:100458000A128A110030F5000030F6000A128A11DB
:10046800B7240A128A117B080A128A114B240A122D
:100478008A110130F9000030FA0001307A02F530B3
:1004880003197902031C492A4A2A4C2A172B172BCD
:100498007C088312031385000030B0000030AF00E1
:1004A8000030AE000130AD003008803AFF00003067
:1004B800803A7F02031D6A2A00302F02031D6A2A30
:1004C80007302E02031D6A2AD1302D02031C6D2A23
:1004D8006E2A702A952A952A0130AD070030031834
:1004E8000130AE07003003180130AF0700300318A1
:1004F8000130B0073008803AFF000030803A7F02B0
:10050800031D902A00302F02031D902A07302E0267
:10051800031D902AD1302D02031C932A942A702A95
:10052800952A7D08A1007C08A00001300310A10CC9
:10053800A00CFF3E031D9A2A2008FC002108FD009C
:100548007D087C04031DA92AAA2AAE2A0830FC00CB
:100558000030FD000130F9070318FA0A0030FA07E5
:1005680001307A02F53003197902031CBC2ABD2A2E
:100578004C2A172B172B0030B0000030AF0000308A
:10058800AE000130AD003008803AFF000030803AFC
:100598007F02031DD92A00302F02031DD92A61309A
:1005A8002E02031DD92AA9302D02031CDC2ADD2ABC
:1005B800DF2A172B172B0130AD0700300318013045
:1005C800AE07003003180130AF07003003180130C0
:1005D800B0073008803AFF000030803A7F02031DE0
:1005E800FF2A00302F02031DFF2A61302E02031D4F
:1005F800FF2AA9302D02031C022B032BDF2A172BFD
:10060800172B172B7B08413A0319FA28023A0319CA
:100618006428053A03199329173A0319BF2A023A9D
:100628000319292A172B831203132508FF0024080E
:100638008A0023088400220E8300FE0E7E0E090025
:10064800823083120313AC00DD30AB00AB0B2A2BD6
:10065800AC0B2A2B2F2B30300A128A110B240A12CA
:100668008A1130300A128A110B240A128A1130308A
:100678000A128A110B240A128A1138300A128A11B6
:100688000B240A128A1108300A128A110B240A1242
:100698008A1101300A128A110B240A128A110630B3
:1006A8000A128A110B240A128A1108007B2B760879
:1006B80083120313FF00750884000A128A11BC23F1
:1006C8000A128A110A128A114B240A128A1101305D
:1006D800F5070318F60A0030F6074130F800EE3047
:1006E800F700F70B752BF80B752B00007B2B7608A2
:1006F80083120313FF00750884000A128A11BC23B1
:100708000A128A110038031D8A2B8B2B5B2B8C2B2A
:100718000800831603138701831203138701073028
:10072800831603139F00831203138901831603138F
:10073800850107309F000130FC000030FD000A12DF
:100748008A1187240A128A11831603138C160B1731
:100758008B170A128A1124230A128A110C300A12E2
:100768008A110B240A128A11B82B0A128A1112282C
:10077800FF1BC62B83137F1883170008840A0319ED
:10078800FF0A080003308A000408840A820700343C
:100798002034203453346934643464346834613424
:1007A8006E347434203453340034203420344F34BD
:1007B8004B3452344534583454344F344E34003466
:1007C8004F344A3441345334003401308312031314
:1007D800A6000030A7000130270291300319260235
:1007E800031CF72BF82BFA2B0A2C0A2C0130A6072E
:1007F8000318A70A0030A707013027029130031910
:100808002602031C082C092CFA2B0A2C0800831238
:100818000313AA0007102A08880087140A128A11ED
:10082800E9230A128A118312031387100A128A1104
:10083800E9230A128A111A3083120313A900F83027
:10084800A800A80B252CA90B252C000008000130B6
:10085800F0000030F100013071029130031970028C
:10086800031C372C382C3A2C4A2C4A2C0130F00720
:100878000318F10A0030F1070130710291300319B1
:100888007002031C482C492C3A2C4A2C0800F4000E
:100898008312031307147408880087140A128A1134
:1008A8002B240A128A118312031387100A128A1141
:1008B8002B240A128A111A30F300F830F200F20BD6
:1008C800632CF30B632C00000800F400831203135D
:1008D80007107408880087140A128A112B240A1238
:1008E8008A118312031387100A128A112B240A1201
:1008F8008A111A30F300F830F200F20B812CF30B56
:10090800812C000008008316031318158130990004
:1009180018128312031398178316031307178717E0
:100928009816831203130C121816080001300A12C5
:100938008A1169240A128A111A30F600F830F50073
:10094800F50BA42CF60BA42C00000800F901FA0101
:10095800FB01AD01AE01AF01B001B101B2018301EC
:100968000A128A118D2B7508803E0A128A11692491
:060978000A128A110800BA
:00000001FF
